:020000040800F2
:1000000048460020450100084D0100084F01000846
:1000100051010008530100085501000800000000CC
:100020000000000000000000000000005701000870
:1000300059010008000000005B0100086906000883
:100040005F0100085F0100085F0100085F01000810
:100050005F0100085F0100085F0100085F01000800
:100060005F0100085F0100085F0100085F010008F0
:100070005F0100085F0100085F0100085F010008E0
:100080005F0100085F0100085F0100085F010008D0
:100090005F0100085F0100085F0100085F010008C0
:1000A0005F0100085F0100085F0100085F010008B0
:1000B0005F0100085F0100085F0100085F010008A0
:1000C0005F0100085F0100085F0100085F01000890
:1000D0005F010008890800088D0800081D09000854
:1000E0005F0100085F0100085F0100085F01000870
:1000F0005F0100085F0100085F0100085F01000860
:100100005F0100085F0100085F0100085F0100084F
:1001100069070008F9070008E10600081107000850
:100120005F0100085F0100085F0100085F0100082F
:10013000DFF80CD000F096F8004800473D0F0008AB
:10014000484600200648804706480047FEE7FEE78D
:10015000FEE7FEE7FEE7FEE7FEE7FEE7FEE7FEE777
:1001600081060008310100082DE9F05F05460020F6
:1001700092469B4688460646814640241BE0284618
:1001800041464746224600F05DF853465A46C01A9B
:10019000914110D311461846224600F044F82D1A1A
:1001A00067EB01084F4622460120002100F03BF892
:1001B00017EB00094E41201EA4F10104DFDC484684
:1001C00031462A464346BDE8F09F421E12F8013FE1
:1001D000002BFBD111F8013B02F8013B002BF9D1B8
:1001E000704730B505462A460B4612F8010B13F846
:1001F000014B08B1A042F8D01CB1002802D06D1C00
:10020000F1E7284630BD421C10F8011B0029FBD144
:10021000801A7047034611F8012B00F8012B002AC1
:10022000F9D118467047202A04DB203A00FA02F17F
:10023000002070479140C2F1200320FA03F31943D4
:1002400090407047202A04DB203A21FA02F0002176
:10025000704721FA02F3D040C2F1200291400843D6
:1002600019467047064C074D06E0E06840F0010370
:1002700094E8070098471034AC42F6D3FFF75CFFD0
:1002800064160008841600082DE9F0410246002596
:100290000026002000230024002791F803C00CF062
:1002A0000F0591F803C00CF0100CBCF1000F03D047
:1002B00091F802C04CEA050591F800C0BCF1000FAE
:1002C00031D0146800202BE04FF0010C0CFA00F341
:1002D000B1F800C00CEA03069E4220D183004FF023
:1002E0000F0C0CFA03F7BC4305FA03FC4CEA0404B8
:1002F00091F803C0BCF1280F06D14FF0010C0CFAA5
:1003000000FCC2F814C00AE091F803C0BCF1480F29
:1003100005D14FF0010C0CFA00FCC2F810C0401CD3
:100320000828D1D31460B1F800C0BCF1FF0F34DD50
:10033000546800202EE000F1080C4FF0010808FA84
:100340000CF3B1F800C00CEA03069E4221D18300F1
:100350004FF00F0C0CFA03F7BC4305FA03FC4CEA10
:10036000040491F803C0BCF1280F05D100F1080C7A
:1003700008FA0CF8C2F8148091F803C0BCF1480FD9
:1003800007D100F1080C4FF0010808FA0CF8C2F888
:100390001080401C0828CED35460BDE8F081416134
:1003A000704701617047000070B5002100230F22E3
:1003B000C47804B3154C246804F4E064C4F5E06424
:1003C000210AC1F10403CA40447804FA03F1847895
:1003D0001440214309010E4C0678A155047804F01D
:1003E0001F050124AC4005786D11AD0005F1E02535
:1003F000C5F8004109E0047804F01F050124AC4071
:10040000044D0678761145F8264070BD0CED00E0ED
:1004100000E400E080E100E029B1064AD26902432D
:10042000044BDA6104E0034AD2698243014BDA618A
:10043000704700000010024029B1064A9269024349
:10044000044B9A6104E0034A92698243014B9A612A
:10045000704700000010024030B500210022002447
:1004600000232D4D6D6805F00C0121B1042905D044
:10047000082923D105E0294D056022E0274D0560BC
:100480001FE0254D6D6805F47012234D6D6805F46D
:100490008034022505EB92421CB9214D554305607D
:1004A0000BE01D4D6D6805F400351DB11C4D554325
:1004B000056002E0194D5543056002E0174D0560E7
:1004C00000BF00BF144D6D6805F0F0010909154D1E
:1004D0006B5C0568DD4045600F4D6D6805F4E061BB
:1004E000090A104D6B5C4568DD4085600A4D6D68FA
:1004F00005F46051C90A0B4D6B5C4568DD40C56071
:10050000054D6D6805F44041890B074D6B5CC5686E
:10051000B5FBF3F5056130BD0010024000127A0012
:1005200000093D00180000202800002010B500F050
:1005300001F810BD0CB50020019000903348006810
:1005400040F480303149086000BF3048006800F452
:10055000003000900198401C0190009818B9019853
:10056000B0F5A06FF1D12948006800F4003010B157
:100570000120009001E0002000900098012843D164
:100580002348006840F010002149086008460068D0
:1005900020F0030008600846006840F00200086090
:1005A0001A4840681949486008464068486008464B
:1005B000406840F4806048600846406820F47C1041
:1005C00048600846406840F4E81048600846006803
:1005D00040F08070086000BF0C48006800F00070B8
:1005E0000028F9D00948406820F003000749486016
:1005F0000846406840F00200486000BF0348406879
:1006000000F00C000828F9D10CBD000000100240D9
:100610000020024030B50146B1F1807F01D30120B6
:1006200030BD21F07F40401E4FF0E0225061501756
:100630000F22002807DA13071D0E094B00F00F04E4
:10064000241F1D5503E013071C0E064B1C5400BF4E
:1006500000204FF0E0229061072010610020DFE7CA
:1006600018ED00E000E400E00448036840685A1E0A
:1006700060F1000001490A604860704710000020E6
:1006800010B51348006840F00100114908600846A1
:100690004068104908400E494860084600680E4905
:1006A00008400B4908600846006820F48020086074
:1006B0000846406820F4FE0048604FF41F00886040
:1006C000FFF734FF4FF000600449086010BD0000E0
:1006D000001002400000FFF8FFFFF6FE08ED00E00A
:1006E00010B50121084800F02EF860B107480268F3
:1006F0004068521E60F1000004490A604860012110
:10070000014800F01DF810BD00100040000000205E
:1007100010B50121084800F016F860B107480268DA
:100720004068521E60F1000004490A6048600121DF
:10073000014800F005F810BD00140040080000203A
:10074000CA430282704730B50246002000230024CD
:10075000158A05EA0103958905EA010413B10CB174
:10076000012000E0002030BD10B540F225511F48A7
:1007700000F035F9C8B11D4800F0ECF9C4B21C48CE
:100780000088C0F30E0040F6FF7188420DDA184968
:100790000988C1F30E00411C154A128861F30E024C
:1007A00013490A80A1F580510C5440F224410F48AE
:1007B00000F015F9012817D10E4800F0D5F90C48C2
:1007C0008078401CC1B20A488170C078814207D14C
:1007D0000748008820F4004000F5004004490880E4
:1007E000024800F0B7F9C4B210BD0000004C004050
:1007F000403000200C16000810B540F225511F486B
:1008000000F0EDF8C8B11D4800F0A4F9C4B21C48CE
:100810000088C0F30E0040F6FF7188420DDA1849D7
:100820000988C1F30E00411C154A128861F30E02BB
:1008300013490A80A1F580510C5440F224410F481D
:1008400000F0CDF8012817D10E4800F08DF90C48C2
:100850008078401CC1B20A488170C078814207D1BB
:100860000748008820F4004000F500400449088053
:10087000024800F06FF9C4B210BD00000050004003
:10088000444000200C1600087047000010B540F2EC
:1008900025511F4800F0A3F8C8B11D4800F05AF9CF
:1008A000C4B21C480088C0F30E0040F6FF718842B5
:1008B0000DDA18490988C1F30E00411C154A128847
:1008C00061F30E0213490A80A1F580510C5440F2E5
:1008D00024410F4800F083F8012817D10E4800F09A
:1008E00043F90C488078401CC1B20A488170C07836
:1008F000814207D10748008820F4004000F50040FD
:1009000004490880024800F025F9C4B210BD000077
:1009100000440040381000200C16000810B540F2CA
:1009200025511F4800F05BF8C8B11D4800F012F9CE
:10093000C4B21C480088C0F30E0040F6FF71884224
:100940000DDA18490988C1F30E00411C154A1288B6
:1009500061F30E0213490A80A1F580510C5440F254
:1009600024410F4800F03BF8012817D10E4800F051
:10097000FBF80C488078401CC1B20A488170C078EE
:10098000814207D10748008820F4004000F500406C
:1009900004490880024800F0DDF8C4B210BD000030
:1009A000004800403C2000200C16000821B182893C
:1009B00042F40052828104E082894DF6FF731A40AE
:1009C0008281704702460020B1F5007F00D100BF50
:1009D00013880B400BB1012000E00020704770B578
:1009E0000246002400230025002040F66A16B1428A
:1009F00000D100BFC1F3421501F01F03012606FA22
:100A000003F3012D02D19689334006E0022D02D175
:100A1000168A334001E0968A33400C12012606FA0A
:100A200004F41688344013B10CB1012000E000201A
:100A300070BDF0B50346002400260025002040F6D6
:100A40006A17B94200D100BF1846C1F3421401F041
:100A50001F06012707FA06F5012C01D10C3004E02E
:100A6000022C01D1103000E014301AB107682F4376
:100A7000076002E00768AF430760F0BD2DE9F0476B
:100A800086B005460E460024A24600BFA1460027B8
:100A9000B08900B100BF2F462C8A4CF6FF7004408D
:100AA000F08804432C82AC894EF6F3100440B088E1
:100AB00031890843718908430443AC81AC8A4FF6FD
:100AC000FF400440B0890443AC8201A8FFF7C4FC96
:100AD0001F48874202D1DDF810A001E0DDF80CA02C
:100AE000A88900F4004040B10AEBCA0000EB0A10EC
:100AF00031684900B0FBF1F807E00AEBCA0000EBEF
:100B00000A1031688900B0FBF1F86420B8FBF0F0FE
:100B100004012009642101FB1089A88900F4004028
:100B200040B1322000EBC900B0FBF1F000F007004B
:100B3000044308E0322000EB09106421B0FBF1F01F
:100B400000F00F0004432C8106B0BDE8F0870000E0
:100B50000038014001468888C0F308007047C1F39F
:100B600008028280704700000FB4054B10B503A93E
:100B7000044A029800F017F810BC5DF814FB00005E
:100B8000BD0D00082C00002002E008C8121F08C19B
:100B9000002AFAD170477047002001E001C1121FFE
:100BA000002AFBD170472DE9F84F994692468846B6
:100BB0000546002706E025280AD051464A469047B8
:100BC0006D1C7F1C28780028F5D13846BDE8F88FC9
:100BD000002315F8011F18462E2915D115F8011FFD
:100BE00004232A290DD06FF02F022978A1F13004B7
:100BF000092C09D800EB800002EB400008446D1C72
:100C0000F3E758F8040B6D1C2A78002ADDD0632A1C
:100C100007D0732A0FD0104651464A4690477F1C92
:100C20002AE018F8042B8DF8002000218DF801101F
:100C30006E46012103E058F8046B4FF0FF315A076C
:100C40004FF0000401D409E0641C84420BDA8C42AA
:100C5000FADB325D002AF7D105E0641C8C42FCDB34
:100C6000305D0028F9D1274404E016F8010B514605
:100C70004A469047641EF8D26D1CA3E72DE9F84F51
:100C800004460D4692466FF07F40B0FBFAFB0AFB2C
:100C90000BF000905A46002320462946FFF764FADD
:100CA00006460F465A46002320462946FFF75CFABF
:100CB00090460098FFF7AEFC0AE000BF4FF0E0203E
:100CC000006900F480300028F8D0761E67F1000734
:100CD000002186EA010079400843EED14FF0E02080
:100CE000006920F001004FF0E0210861A8FB0A0232
:100CF000FFF790FC00BF4FF0E020006900F4803067
:100D00000028F8D04FF0E020006920F001004FF0FB
:100D1000E0210861BDE8F88F70B504460D46034A2E
:100D200020462946FFF7AAFF70BD000040190100C8
:100D300030B502E0401E61F10001002380EA0302A9
:100D40004B401A43F6D130BD70B504460D461646E9
:100D500034B1012C0BD0022C10D0032C1CD114E088
:100D600033462A460D490E4800F026FB70BD334637
:100D70002A460C490C4800F01FFBF7E733462A4689
:100D80000A490B4800F018FBF0E733462A460949A8
:100D9000094800F011FBE9E70020E7E700440040C4
:100DA00038000020004800403C100020004C00406B
:100DB00040200020005000404430002070B5044620
:100DC0000D46E1B20548FFF7CAFE00BF8021034887
:100DD000FFF7F8FD0028F9D0204670BD003801402B
:100DE00010B5002821D0114B0022001F196803E024
:100DF000814203D80A4649680029F9D152B11368E3
:100E0000841A9C4204D1006818441060104602E025
:100E1000506000E0186039B102680B1A934203D1A8
:100E20000B681A4402604968416010BD3000002020
:100E3000F8B506460C4615468DF800608DF8014061
:100E40008DF8025001208DF803006846FFF7ACFAD8
:100E5000F8BD00001FB54FF480604110054A0092B4
:100E60004023CDE9012103901A460349084600F0CA
:100E700041F81FBD00180140390400081FB54FF4A8
:100E800080404110054A00924023CDE901210390A2
:100E90001A460349084600F02DF81FBD001801400E
:100EA000390400081FB502200121064A0092802360
:100EB000CDE9012103901A460349084600F01AF8CB
:100EC0001FBD0000001C0140390400081FB50820A8
:100ED0000421064A00928023CDE9012103901A469D
:100EE0000349084600F006F81FBD0000001C014041
:100EF000390400082DE9F84F04460D4616461F46F2
:100F0000DDE90CABDDE90A8901213046A047ADF8E7
:100F100000A010208DF8030003208DF80200694620
:100F20004046FFF7B1F901213846A847ADF800B0B7
:100F300069464846FFF7A8F9BDE8F88F1CB50020C0
:100F40000C2103460246CDE9001001464FF4E13082
:100F500000F064F8032000F083FA0FA0FFF704FE0E
:100F6000032000F009FB032000F010FA12E00AA0B1
:100F7000FFF7FAFD02220AA10320FFF7E5FE04466F
:100F800021460AA0FFF7F0FD4FF47A700021FFF729
:100F9000C3FE00BFEBE7000068656C6C6F0A0000E1
:100FA00041542B43574C41500000000025730A0068
:100FB000F0B50B30154D20F007010024144A0FE066
:100FC00003688B420BD38B4205D95E1A43184768DE
:100FD000C3E9006700E04368136002C004E0021D3B
:100FE00010680028ECD12046002802D1286808B1FA
:100FF0000020F0BD064A07481060074A121A22F086
:101000000702C0E9002401202860D7E7340000204F
:10101000300000204C400020484200202DE9F043E1
:1010200085B004460D4616461F46DDE90C890121B0
:101030000420FFF701FA4FF40070ADF810001820FB
:101040008DF8130003208DF8120004A91948FFF74A
:101050001BF94FF48060ADF8100004208DF81300E8
:1010600004A91448FFF710F901218803FFF7E4F9F8
:101070000094ADF80450ADF80660ADF80870ADF816
:101080000C90ADF80A8069460B48FFF7F7FC012287
:1010900011462520FFF7CCFE012240F225510648DB
:1010A000FFF7C7FC01210448FFF780FC05B0BDE84D
:1010B000F083000000080140003801402DE9F043B2
:1010C00085B004460D4616461F46DDE90C89012110
:1010D0000420FFF7B1F90420ADF8100018208DF8B6
:1010E000130003208DF8120004A91948FFF7CCF86B
:1010F0000820ADF8100004208DF8130004A914484E
:10110000FFF7C2F801214804FFF786F90094ADF813
:101110000450ADF80660ADF80870ADF80C90ADF86D
:101120000A8069460B48FFF7A9FC0222012126200C
:10113000FFF77EFE012240F225510648FFF779FCB9
:1011400001210448FFF732FC05B0BDE8F083000040
:1011500000080140004400402DE9F04385B00446FA
:101160000D4616461F46DDE90C8901210820FFF7D0
:1011700063F94FF48060ADF8100018208DF813006B
:1011800003208DF8120004A91948FFF77DF84FF4E9
:101190000060ADF8100004208DF8130004A9144875
:1011A000FFF772F801218804FFF736F90094ADF8D3
:1011B0000450ADF80660ADF80870ADF80C90ADF8CD
:1011C0000A8069460B48FFF759FC032201212720BA
:1011D000FFF72EFE012240F225510648FFF729FCB9
:1011E00001210448FFF7E2FB05B0BDE8F0830000F1
:1011F000000C0140004800402DE9F04385B0044652
:101200000D4616461F46DDE90C8901211020FFF727
:1012100013F94FF48060ADF8100018208DF813001A
:1012200003208DF8120004A91948FFF72DF84FF498
:101230000060ADF8100004208DF8130004A91448D4
:10124000FFF722F80121C804FFF7E6F80094ADF893
:101250000450ADF80660ADF80870ADF80C90ADF82C
:101260000A8069460B48FFF709FC0422012134205B
:10127000FFF7DEFD012240F225510648FFF7D9FBBA
:1012800001210448FFF792FB05B0BDE8F0830000A0
:1012900000100140004C00402DE9F04385B00446A9
:1012A0000D4616461F46DDE90C8901211020FFF787
:1012B000C3F801212020FFF7BFF84FF48050ADF8AC
:1012C000100018208DF8130003208DF8120004A9D7
:1012D0001848FEF7D9FF0420ADF810008DF8130070
:1012E00004A91548FEF7D0FF01210805FFF794F87F
:1012F0000094ADF80450ADF80660ADF80870ADF894
:101300000C90ADF80A8069460C48FFF7B7FB052240
:1013100001213520FFF78CFD012240F225510748BD
:10132000FFF787FB01210548FFF740FB05B0BDE84B
:10133000F083000000100140001401400050004004
:1013400070B504460D4629462046FFF708FC00BF4D
:1013500080212046FFF736FB0028F9D070BDD0B5BC
:1013600007460E46002400BF315D3846FFF7E8FF10
:10137000641C601E305C0028F6D100BF4FF04001B5
:101380003846FFF71FFB0028F8D0D0BD70B50446E3
:101390000DE0012206A12046FFF7D6FC054605A177
:1013A000FEF71FFF00B170BD204600F0E5F8F0E742
:1013B000415400004F4B00002DE9F04704460E4613
:1013C00015461F464FF48050005BC10BC9034FF414
:1013D000805001532846FEF716FF804608F10400AE
:1013E000FFF7E6FD814629464846FEF713FF18A1A0
:1013F0004846FEF7EAFE4FF48050005B20F40041BF
:101400004FF48050015313A0FFF7AEFB002141F2CF
:1014100002000155401C075549463046FFF79FFF23
:101420004846FFF7DDFC00BF4FF48050005BC00B67
:101430000028F9D009A0FFF797FB00214FF4805056
:10144000005BC0F30E0021542046BDE8F087000089
:101450000D0A000073656E64210A00006F6B0A00BC
:101460001CB5044634B1012C22D0022C3ED0032CF2
:1014700074D157E0FFF7EEFC00200C210346024632
:10148000CDE9001001464FF4E130FFF717FE0122CD
:1014900040F224413248FFF7CCFA4FF480613148E2
:1014A000FEF77FFF4FF400712E48FEF778FF55E0FE
:1014B000FFF7E4FC00200C2103460246CDE90010B2
:1014C00001464FF4E130FFF747FE012240F224418C
:1014D0002548FFF7AEFA4FF480412248FEF761FF3E
:1014E0004FF400511F48FEF75AFF37E0FFF7DAFCD0
:1014F00000200C2103460246CDE9001001464FF4BE
:10150000E130FFF779FE012240F224411748FFF74E
:1015100090FA02211648FEF744FF01211448FEF715
:101520003EFF1BE0FFF7D2FC00200C2103460246E1
:10153000CDE9001001464FF4E130FFF7ADFE012286
:1015400040F224410B48FFF774FA08210848FEF7DF
:1015500028FF04210648FEF722FF00BF00BF1CBD84
:10156000004400400018014000480040004C00408A
:10157000001C01400050004010B5044634B1012C5D
:1015800013D0022C20D0032C38D12AE04FF48061F4
:101590001B48FEF704FF1B480021FFF7C9FB4FF46F
:1015A00080611748FEF7FDFE28E04FF480411448A3
:1015B000FEF7F5FE13480021FFF7BAFB4FF4804118
:1015C0000F48FEF7EEFE19E002210F48FEF7E7FE96
:1015D0000C480021FFF7ACFB02210B48FEF7E1FEAF
:1015E0000CE008210848FEF7DAFE06480021FFF764
:1015F0009FFB08210448FEF7D4FE00BF00BF10BDCA
:1016000000180140FFFF0500001C01400A0A2121CB
:1016100021212121212121212121212121212121BA
:1016200021212121212121212121212121210A6280
:1016300075732069646C65210A21212121212121F2
:10164000212121212121212121212121212121218A
:10165000212121212121212121212121212121217A
:1016600021210A0084160008000000203800000034
:10167000880B0008BC160008380000201046000047
:10168000980B0008000000000000000000000000AF
:10169000000000000000000000000000000000004A
:1016A00001020304010203040607080902040608F4
:0C16B0000000000000000000000000002E
:0400000508000131BD
:00000001FF
