:020000040800F2
:1000000018040020450100084D0100084F010008B8
:1000100051010008530100085501000800000000CC
:100020000000000000000000000000005701000870
:1000300059010008000000005B010008750200087B
:100040005F0100085F0100085F0100085F01000810
:100050005F0100085F0100085F0100085F01000800
:100060005F0100085F0100085F0100085F010008F0
:100070005F0100085F0100085F0100085F010008E0
:100080005F0100085F0100085F0100085F010008D0
:100090005F0100085F0100085F0100085F010008C0
:1000A0005F0100085F0100085F0100085F010008B0
:1000B0005F0100085F0100085F0100085F010008A0
:1000C0005F0100085F0100085F0100085F01000890
:1000D0005F0100085F0100085F0100085F01000880
:1000E0005F0100085F0100085F0100085F01000870
:1000F0005F0100085F0100085F0100085F01000860
:100100005F0100085F0100085F0100085F0100084F
:100110005F0100085F010008ED0200081D030008F0
:100120005F0100085F0100085F0100085F0100082F
:10013000DFF80CD000F018F80048004793030008DF
:10014000180400200648804706480047FEE7FEE7FF
:10015000FEE7FEE7FEE7FEE7FEE7FEE7FEE7FEE777
:100160008D02000831010008064C074D06E0E068EA
:1001700040F0010394E8070098471034AC42F6D3EE
:10018000FFF7DAFF98030008B803000810B500F085
:1001900001F810BD0CB500200190009033480068B4
:1001A00040F480303149086000BF3048006800F4F6
:1001B000003000900198401C0190009818B90198F7
:1001C000B0F5A06FF1D12948006800F4003010B1FB
:1001D0000120009001E0002000900098012843D108
:1001E0002348006840F01000214908600846006874
:1001F00020F0030008600846006840F00200086034
:100200001A484068194948600846406848600846EE
:10021000406840F4806048600846406820F47C10E4
:1002200048600846406840F4E810486008460068A6
:1002300040F08070086000BF0C48006800F000705B
:100240000028F9D00948406820F0030007494860B9
:100250000846406840F00200486000BF034840681C
:1002600000F00C000828F9D10CBD0000001002407D
:10027000002002400448036840685A1E60F10000F4
:1002800001490A60486070471000002010B513480B
:10029000006840F0010011490860084640681049B4
:1002A00008400E494860084600680E4908400B495E
:1002B00008600846006820F480200860084640680E
:1002C00020F4FE0048604FF41F008860FFF75EFFD7
:1002D0004FF000600449086010BD000000100240AB
:1002E0000000FFF8FFFFF6FE08ED00E010B5012169
:1002F000084800F02EF860B1074802684068521EB6
:1003000060F1000004490A6048600121014800F0E2
:100310001DF810BD001000400000002010B50121A4
:10032000084800F016F860B1074802684068521E9D
:1003300060F1000004490A6048600121014800F0B2
:1003400005F810BD0014004008000020CA430282D6
:10035000704730B50246002000230024158A05EAC4
:100360000103958905EA010413B10CB1012000E0F5
:10037000002030BD02E008C8121F08C1002AFAD1CF
:1003800070477047002001E001C1121F002AFBD115
:10039000704700BFFEE70000B8030008000000201F
:1003A0001800000074030008D003000818000020A3
:1003B00000040000840300080000000000000000AA
:1003C000000000000000000000000000000000002D
:0400000508000131BD
:00000001FF
