:020000040800F2
:1000000040460020450100084D0100084F0100084E
:1000100051010008530100085501000800000000CC
:100020000000000000000000000000005701000870
:1000300059010008000000005B0100086906000883
:100040005F0100085F0100085F0100085F01000810
:100050005F0100085F0100085F0100085F01000800
:100060005F0100085F0100085F0100085F010008F0
:100070005F0100085F0100085F0100085F010008E0
:100080005F0100085F0100085F0100085F010008D0
:100090005F0100085F0100085F0100085F010008C0
:1000A0005F0100085F0100085F0100085F010008B0
:1000B0005F0100085F0100085F0100085F010008A0
:1000C0005F0100085F0100085F0100085F01000890
:1000D0005F010008990800089D080008350900081C
:1000E0005F0100085F0100085F0100085F01000870
:1000F0005F0100085F0100085F0100085F01000860
:100100005F0100085F0100085F0100085F0100084F
:100110006907000801080008E10600081107000847
:100120005F0100085F0100085F0100085F0100082F
:10013000DFF80CD000F096F800480047E110000806
:10014000404600200648804706480047FEE7FEE795
:10015000FEE7FEE7FEE7FEE7FEE7FEE7FEE7FEE777
:1001600081060008310100082DE9F05F05460020F6
:1001700092469B4688460646814640241BE0284618
:1001800041464746224600F05DF853465A46C01A9B
:10019000914110D311461846224600F044F82D1A1A
:1001A00067EB01084F4622460120002100F03BF892
:1001B00017EB00094E41201EA4F10104DFDC484684
:1001C00031462A464346BDE8F09F421E12F8013FE1
:1001D000002BFBD111F8013B02F8013B002BF9D1B8
:1001E000704730B505462A460B4612F8010B13F846
:1001F000014B08B1A042F8D01CB1002802D06D1C00
:10020000F1E7284630BD421C10F8011B0029FBD144
:10021000801A7047034611F8012B00F8012B002AC1
:10022000F9D118467047202A04DB203A00FA02F17F
:10023000002070479140C2F1200320FA03F31943D4
:1002400090407047202A04DB203A21FA02F0002176
:10025000704721FA02F3D040C2F1200291400843D6
:1002600019467047064C074D06E0E06840F0010370
:1002700094E8070098471034AC42F6D3FFF75CFFD0
:10028000F0170008101800082DE9F041024600257B
:100290000026002000230024002791F803C00CF062
:1002A0000F0591F803C00CF0100CBCF1000F03D047
:1002B00091F802C04CEA050591F800C0BCF1000FAE
:1002C00031D0146800202BE04FF0010C0CFA00F341
:1002D000B1F800C00CEA03069E4220D183004FF023
:1002E0000F0C0CFA03F7BC4305FA03FC4CEA0404B8
:1002F00091F803C0BCF1280F06D14FF0010C0CFAA5
:1003000000FCC2F814C00AE091F803C0BCF1480F29
:1003100005D14FF0010C0CFA00FCC2F810C0401CD3
:100320000828D1D31460B1F800C0BCF1FF0F34DD50
:10033000546800202EE000F1080C4FF0010808FA84
:100340000CF3B1F800C00CEA03069E4221D18300F1
:100350004FF00F0C0CFA03F7BC4305FA03FC4CEA10
:10036000040491F803C0BCF1280F05D100F1080C7A
:1003700008FA0CF8C2F8148091F803C0BCF1480FD9
:1003800007D100F1080C4FF0010808FA0CF8C2F888
:100390001080401C0828CED35460BDE8F081416134
:1003A000704701617047000070B5002100230F22E3
:1003B000C47804B3154C246804F4E064C4F5E06424
:1003C000210AC1F10403CA40447804FA03F1847895
:1003D0001440214309010E4C0678A155047804F01D
:1003E0001F050124AC4005786D11AD0005F1E02535
:1003F000C5F8004109E0047804F01F050124AC4071
:10040000044D0678761145F8264070BD0CED00E0ED
:1004100000E400E080E100E029B1064AD26902432D
:10042000044BDA6104E0034AD2698243014BDA618A
:10043000704700000010024029B1064A9269024349
:10044000044B9A6104E0034A92698243014B9A612A
:10045000704700000010024030B500210022002447
:1004600000232D4D6D6805F00C0121B1042905D044
:10047000082923D105E0294D056022E0274D0560BC
:100480001FE0254D6D6805F47012234D6D6805F46D
:100490008034022505EB92421CB9214D554305607D
:1004A0000BE01D4D6D6805F400351DB11C4D554325
:1004B000056002E0194D5543056002E0174D0560E7
:1004C00000BF00BF144D6D6805F0F0010909154D1E
:1004D0006B5C0568DD4045600F4D6D6805F4E061BB
:1004E000090A104D6B5C4568DD4085600A4D6D68FA
:1004F00005F46051C90A0B4D6B5C4568DD40C56071
:10050000054D6D6805F44041890B074D6B5CC5686E
:10051000B5FBF3F5056130BD0010024000127A0012
:1005200000093D00180000202800002010B500F050
:1005300001F810BD0CB50020019000903348006810
:1005400040F480303149086000BF3048006800F452
:10055000003000900198401C0190009818B9019853
:10056000B0F5A06FF1D12948006800F4003010B157
:100570000120009001E0002000900098012843D164
:100580002348006840F010002149086008460068D0
:1005900020F0030008600846006840F00200086090
:1005A0001A4840681949486008464068486008464B
:1005B000406840F4806048600846406820F47C1041
:1005C00048600846406840F4E81048600846006803
:1005D00040F08070086000BF0C48006800F00070B8
:1005E0000028F9D00948406820F003000749486016
:1005F0000846406840F00200486000BF0348406879
:1006000000F00C000828F9D10CBD000000100240D9
:100610000020024030B50146B1F1807F01D30120B6
:1006200030BD21F07F40401E4FF0E0225061501756
:100630000F22002807DA13071D0E094B00F00F04E4
:10064000241F1D5503E013071C0E064B1C5400BF4E
:1006500000204FF0E0229061072010610020DFE7CA
:1006600018ED00E000E400E00448036840685A1E0A
:1006700060F1000001490A604860704710000020E6
:1006800010B51348006840F00100114908600846A1
:100690004068104908400E494860084600680E4905
:1006A00008400B4908600846006820F48020086074
:1006B0000846406820F4FE0048604FF41F00886040
:1006C000FFF734FF4FF000600449086010BD0000E0
:1006D000001002400000FFF8FFFFF6FE08ED00E00A
:1006E00010B50121084800F02EF860B107480268F3
:1006F0004068521E60F1000004490A604860012110
:10070000014800F01DF810BD00100040000000205E
:1007100010B50121084800F016F860B107480268DA
:100720004068521E60F1000004490A6048600121DF
:10073000014800F005F810BD00140040080000203A
:10074000CA430282704730B50246002000230024CD
:10075000158A05EA0103958905EA010413B10CB174
:10076000012000E0002030BD10B540F225512148A5
:1007700000F045F900283CD01E4800F0FBF9C4B257
:100780001D480088C0F30E0040F6FF7188420DDA64
:1007900019490988C1F30E00411C174A128861F3F8
:1007A0000E0215490A80A1F580510C540A2C20D163
:1007B00011480088C0F30E00801E1049085C0D2807
:1007C00017D10D480088C0F30E00C01E085C4B28EE
:1007D0000FD109480088C0F30E00001F085C4F28A5
:1007E00007D10548008820F4004000F50040024988
:1007F000088010BD004C00403C3000203C20002010
:1008000010B540F22551214800F0F9F800283CD0FD
:100810001E4800F0AFF9C4B21D480088C0F30E00B6
:1008200040F6FF7188420DDA19490988C1F30E00BC
:10083000411C174A128861F30E0215490A80A1F57E
:1008400080510C540A2C20D111480088C0F30E00AE
:10085000801E1049085C0D2817D10D480088C0F390
:100860000E00C01E085C4B280FD109480088C0F359
:100870000E00001F085C4F2807D10548008820F4AF
:10088000004000F500400249088010BD00500040C3
:100890003E4000203E3000207047000010B540F27E
:1008A0002551214800F0ABF800283CD01E4800F04C
:1008B00061F9C4B21D480088C0F30E0040F6FF7114
:1008C00088420DDA19490988C1F30E00411C174A04
:1008D000128861F30E0215490A80A1F580510C546B
:1008E0000A2C20D111480088C0F30E00801E104948
:1008F000085C0D2817D10D480088C0F30E00C01EFB
:10090000085C4B280FD109480088C0F30E00001F77
:10091000085C4F2807D10548008820F4004000F506
:1009200000400249088010BD0044004038100020FB
:100930003800002010B540F22551214800F05FF842
:1009400000283CD01E4800F015F9C4B21D480088AC
:10095000C0F30E0040F6FF7188420DDA194909888C
:10096000C1F30E00411C174A128861F30E021549AB
:100970000A80A1F580510C540A2C20D1114800881E
:10098000C0F30E00801E1049085C0D2817D10D48D9
:100990000088C0F30E00C01E085C4B280FD1094828
:1009A0000088C0F30E00001F085C4F2807D10548DF
:1009B000008820F4004000F500400249088010BD86
:1009C000004800403A2000203A10002021B18289DE
:1009D00042F40052828104E082894DF6FF731A408E
:1009E0008281704702460020B1F5007F00D100BF30
:1009F00013880B400BB1012000E00020704770B558
:100A00000246002400230025002040F66A16B14269
:100A100000D100BFC1F3421501F01F03012606FA01
:100A200003F3012D02D19689334006E0022D02D155
:100A3000168A334001E0968A33400C12012606FAEA
:100A400004F41688344013B10CB1012000E00020FA
:100A500070BDF0B50346002400260025002040F6B6
:100A60006A17B94200D100BF1846C1F3421401F021
:100A70001F06012707FA06F5012C01D10C3004E00E
:100A8000022C01D1103000E014301AB107682F4356
:100A9000076002E00768AF430760F0BD2DE9F0474B
:100AA00086B005460E460024A24600BFA146002798
:100AB000B08900B100BF2F462C8A4CF6FF7004406D
:100AC000F08804432C82AC894EF6F3100440B088C1
:100AD00031890843718908430443AC81AC8A4FF6DD
:100AE000FF400440B0890443AC8201A8FFF7B4FC86
:100AF0001F48874202D1DDF810A001E0DDF80CA00C
:100B0000A88900F4004040B10AEBCA0000EB0A10CB
:100B100031684900B0FBF1F807E00AEBCA0000EBCE
:100B20000A1031688900B0FBF1F86420B8FBF0F0DE
:100B300004012009642101FB1089A88900F4004008
:100B400040B1322000EBC900B0FBF1F000F007002B
:100B5000044308E0322000EB09106421B0FBF1F0FF
:100B600000F00F0004432C8106B0BDE8F0870000C0
:100B70000038014001468888C0F308007047C1F37F
:100B800008028280704700000FB4054B10B503A91E
:100B9000044A029800F017F810BC5DF814FB00003E
:100BA000310F00082C00002002E008C8121F08C105
:100BB000002AFAD170477047002001E001C1121FDE
:100BC000002AFBD170472DE9F84F99469246884696
:100BD0000546002706E025280AD051464A46904798
:100BE0006D1C7F1C28780028F5D13846BDE8F88FA9
:100BF000002315F8011F18462E2915D115F8011FDD
:100C000004232A290DD06FF02F022978A1F1300496
:100C1000092C09D800EB800002EB400008446D1C51
:100C2000F3E758F8040B6D1C2A78002ADDD0632AFC
:100C300007D0732A0FD0104651464A4690477F1C72
:100C40002AE018F8042B8DF8002000218DF80110FF
:100C50006E46012103E058F8046B4FF0FF315A074C
:100C60004FF0000401D409E0641C84420BDA8C428A
:100C7000FADB325D002AF7D105E0641C8C42FCDB14
:100C8000305D0028F9D1274404E016F8010B5146E5
:100C90004A469047641EF8D26D1CA3E72DE9F84F31
:100CA00004460D4692466FF07F40B0FBFAFB0AFB0C
:100CB0000BF000905A46002320462946FFF754FACD
:100CC00006460F465A46002320462946FFF74CFAAF
:100CD00090460098FFF79EFC0AE000BF4FF0E0202E
:100CE000006900F480300028F8D0761E67F1000714
:100CF000002186EA010079400843EED14FF0E02060
:100D0000006920F001004FF0E0210861A8FB0A0211
:100D1000FFF780FC00BF4FF0E020006900F4803056
:100D20000028F8D04FF0E020006920F001004FF0DB
:100D3000E0210861BDE8F88F70B504460D46034A0E
:100D400020462946FFF7AAFF70BD000040190100A8
:100D500070B5044645480088C10BC903434801806B
:100D600043480088C10BC9034148018041480088BD
:100D7000C10BC9033F4801803F480088C10BC9032C
:100D80003D4801802046FFF73EFA0546281D00F049
:100D90003BFA064621463046FFF73CFA37A130467B
:100DA000FFF713FA3148008820F400412F480180F2
:100DB0002F48008820F400412D4801802D480088EC
:100DC00020F400412B4801802B48008820F400418A
:100DD000294801802AA0FFF7D7FE31462A4800F0B3
:100DE00004FC3146294800F000FC3146284800F058
:100DF000FCFB3146274800F0F8FB304600F0AAF82B
:100E000000BF1A480088C00B0028FAD000BF18485D
:100E10000088C00B0028FAD000BF16480088C00B1D
:100E20000028FAD000BF14480088C00B0028FAD070
:100E300019A0FFF7A9FE00210C480088C0F30E009E
:100E4000164A11540A480088C0F30E00144A11547F
:100E500008480088C0F30E00124A11540648008862
:100E6000C0F30E00104A115470BD0000381000206D
:100E70003A2000203C3000203E4000200D0A0000B7
:100E800073656E64210A0000004400400048004081
:100E9000004C0040005000406F6B0A0038000020FA
:100EA0003A1000203C2000203E3000202DE9FC417B
:100EB00006460F4614461D4636B1012E0DD0022EB1
:100EC00013D0032E21D118E03A4611491148CDE93B
:100ED000004500F0C7FBBDE8FC813A460E490F48CB
:100EE000CDE9004500F0BEFBF5E73A460C490D4858
:100EF000CDE9004500F0B6FBEDE73A460A490B485C
:100F0000CDE9004500F0AEFBE5E70020E3E7000097
:100F10000044004038000020004800403A10002003
:100F2000004C00403C200020005000403E3000209B
:100F300070B504460D46E1B20548FFF720FE00BF3C
:100F400080210348FFF74EFD0028F9D0204670BDF0
:100F50000038014010B5002821D0114B0022001F9D
:100F6000196803E0814203D80A4649680029F9D18B
:100F700052B11368841A9C4204D10068184410606E
:100F8000104602E0506000E0186039B102680B1AA8
:100F9000934203D10B681A4402604968416010BD56
:100FA00030000020F8B506460C4615468DF8006066
:100FB0008DF801408DF8025001208DF8030068463D
:100FC000FFF7F2F9F8BD00001FB54FF48060411043
:100FD000054A00924023CDE9012103901A460349B6
:100FE000084600F041F81FBD001801403904000810
:100FF0001FB54FF480404110054A00924023CDE9CF
:10100000012103901A460349084600F02DF81FBD40
:1010100000180140390400081FB502200121064ACA
:1010200000928023CDE9012103901A460349084626
:1010300000F01AF81FBD0000001C01403904000830
:101040001FB508200421064A00928023CDE9012122
:1010500003901A460349084600F006F81FBD000039
:10106000001C0140390400082DE9F84F04460D46E4
:1010700016461F46DDE90CABDDE90A890121304641
:10108000A047ADF800A010208DF8030003208DF8D4
:10109000020069464046FFF7F7F801213846A847A5
:1010A000ADF800B069464846FFF7EEF8BDE8F88FA6
:1010B00008B501218020FFF7BFF91020ADF800002E
:1010C0008DF8030003208DF8020069460348FFF7FE
:1010D000DBF800F07DFB00F083FB08BD001C014045
:1010E0001CB500200C2103460246CDE90010014644
:1010F0004FF4E13000F0D8F8FFF7DAFF002000F0FD
:10110000FBFA012000F0F8FA022000F0F5FA0320C3
:1011100000F0F2FA24A0FFF737FD002000F07CFA7F
:1011200023A0FFF731FD012000F076FA22A0FFF79F
:101130002BFD022000F070FA21A0FFF725FD03200F
:1011400000F06AFA20A0FFF71FFD002000F092F8DF
:101150001FA0FFF719FD012000F08CF81EA0FFF77B
:1011600013FD022000F086F81DA0FFF70DFD0320FF
:1011700000F080F817E01CA0FFF7EAFD1D491EA053
:10118000FFF702FD1D491CA0FFF7FEFC1C491AA039
:10119000FFF7FAFC1B4918A0FFF7F6FC4FF47A7032
:1011A0000021FFF7C9FDE6E777616974310A0000A5
:1011B00077616974320A000077616974330A00004C
:1011C00077616974340A0000736574310A000000A5
:1011D000736574320A000000736574330A000000FE
:1011E000736574340A00000041542B43574C41503E
:1011F000000000003800002025730A003A1000208B
:101200003C2000203E300020F0B50B30154D20F082
:1012100007010024144A0FE003688B420BD38B4272
:1012200005D95E1A43184768C3E9006700E04368C0
:10123000136002C004E0021D10680028ECD12046B3
:10124000002802D1286808B10020F0BD064A0748EE
:101250001060074A121A22F00702C0E90024012098
:101260002860D7E7340000203000002044400020F0
:101270004042002070B504460CE04FF4FA7200239F
:1012800005A12046FFF712FE054606A1FEF7A9FFBD
:1012900000B170BDF1E7000041542B43574D4F445E
:1012A000453D31004F4B00002DE9F04385B0044629
:1012B0000D4616461F46DDE90C8901210420FFF783
:1012C000BBF84FF40070ADF8100018208DF8130033
:1012D00003208DF8120004A91948FEF7D5FF4FF43A
:1012E0008060ADF8100004208DF8130004A91448A4
:1012F000FEF7CAFF01218803FFF79EF80094ADF8BE
:101300000450ADF80660ADF80870ADF80C90ADF87B
:101310000A8069460B48FFF7C1FB012211462520D0
:10132000FFF740FE012240F225510648FFF791FBEE
:1013300001210448FFF74AFB05B0BDE8F083000037
:1013400000080140003801402DE9F04385B0044613
:101350000D4616461F46DDE90C8901210420FFF7E2
:101360006BF80420ADF8100018208DF8130003204E
:101370008DF8120004A91948FEF786FF0820ADF881
:10138000100004208DF8130004A91448FEF77CFF18
:1013900001214804FFF740F80094ADF80450ADF87F
:1013A0000660ADF80870ADF80C90ADF80A8069469B
:1013B0000B48FFF773FB022201212620FFF7F2FD05
:1013C000012240F225510648FFF743FB0121044862
:1013D000FFF7FCFA05B0BDE8F0830000000801400B
:1013E000004400402DE9F04385B004460D46164602
:1013F0001F46DDE90C8901210820FFF71DF84FF495
:101400008060ADF8100018208DF8130003208DF8CF
:10141000120004A91948FEF737FF4FF40060ADF839
:10142000100004208DF8130004A91448FEF72CFFC7
:1014300001218804FEF7F0FF0094ADF80450ADF8E8
:101440000660ADF80870ADF80C90ADF80A806946FA
:101450000B48FFF723FB032201212720FFF7A2FD02
:10146000012240F225510648FFF7F3FA0121044812
:10147000FFF7ACFA05B0BDE8F0830000000C0140B6
:10148000004800402DE9F04385B004460D4616465D
:101490001F46DDE90C8901211020FEF7CDFF4FF436
:1014A0008060ADF8100018208DF8130003208DF82F
:1014B000120004A91948FEF7E7FE4FF40060ADF8EA
:1014C000100004208DF8130004A91448FEF7DCFE78
:1014D0000121C804FEF7A0FF0094ADF80450ADF858
:1014E0000660ADF80870ADF80C90ADF80A8069465A
:1014F0000B48FFF7D3FA042201213420FFF752FDF5
:10150000012240F225510648FFF7A3FA01210448C1
:10151000FFF75CFA05B0BDE8F08300000010014061
:10152000004C00402DE9F04385B004460D461646B8
:101530001F46DDE90C8901211020FEF77DFF012106
:101540002020FEF779FF4FF48050ADF810001820EE
:101550008DF8130003208DF8120004A91848FEF737
:1015600093FE0420ADF810008DF8130004A915486F
:10157000FEF78AFE01210805FEF74EFF0094ADF844
:101580000450ADF80660ADF80870ADF80C90ADF8F9
:101590000A8069460C48FFF781FA052201213520AF
:1015A000FFF700FD012240F225510748FFF751FAED
:1015B00001210548FFF70AFA05B0BDE8F0830000F5
:1015C00000100140001401400050004070B5044676
:1015D0000D4629462046FFF7D2FA00BF802120465B
:1015E000FFF700FA0028F9D070BDD0B507460E46C7
:1015F000002400BF315D3846FFF7E8FF641C601E21
:10160000305C0028F6D100BF4FF040013846FFF7AC
:10161000E9F90028F8D0D0BD70B5044612E04FF4C7
:10162000FA72002308A12046FFF740FC0546294630
:1016300006A0FFF7A9FA0AA12846FEF7D2FD00B1DD
:1016400070BD00BFEBE700004154000025730A0A9B
:101650003D3D3D3D3D3D3D3D3D3D3D3D0A000000A4
:101660004F4B00002DE9F04704460E461546DDE9D4
:1016700008782846FEF7C7FD814609F10400FFF708
:10168000C3FD824629465046FEF7C4FD16A15046CA
:10169000FEF79BFD4FF48050005B20F400414FF4B7
:1016A00080500153005BC10BC9034FF480500153BC
:1016B0000EA0FFF769FA51463046FFF796FF5046F5
:1016C000FFF748FC38464146FFF736FB09A0FFF715
:1016D0005BFA00214FF48050005BC0F30E002154F0
:1016E0002046BDE8F08700000D0A000073656E64B7
:1016F000210A00006F6B0A001CB5044634B1012CAE
:101700001CD0022C32D0032C5CD145E0FFF75CFCEE
:1017100000200C2103460246CDE9001001464FF49B
:10172000E130FFF711FE4FF480612748FEF739FEE4
:101730004FF400712448FEF734FE43E0FFF758FCF5
:1017400000200C2103460246CDE9001001464FF46B
:10175000E130FFF747FE4FF480411B48FEF721FEC2
:101760004FF400511848FEF71CFE2BE0FFF754FC25
:1017700000200C2103460246CDE9001001464FF43B
:10178000E130FFF77FFE02211048FEF70AFE01213B
:101790000E48FEF706FE15E0FFF752FC00200C2174
:1017A00003460246CDE9001001464FF4E130FFF751
:1017B000B9FE08210548FEF7F4FD04210348FEF7B1
:1017C000F0FD00BF00BF1CBD00180140001C01401F
:1017D00010B510210148FEF7E2FD10BD001C0140CC
:1017E00010B510210148FEF7DCFD10BD001C0140C2
:1017F000101800080000002038000000A80B0008A6
:10180000481800083800002008460000B80B0008FF
:1018100000000000000000000000000000000000C8
:1018200000000000000000000000000001020304AE
:10183000010203040607080902040608000000006C
:081840000000000000000000A0
:0400000508000131BD
:00000001FF
