:020000040800F2
:1000000078570020450100084D0100084F01000805
:1000100051010008530100085501000800000000CC
:100020000000000000000000000000005701000870
:1000300059010008000000005B010008ED05000800
:100040005F0100085F0100085F0100085F01000810
:100050005F0100085F0100085F0100085F01000800
:100060005F0100085F0100085F0100085F010008F0
:100070005F0100085F0100085F0100085F010008E0
:100080005F0100085F0100085F0100085F010008D0
:100090005F0100085F0100085F0100085F010008C0
:1000A0005F0100085F0100085F0100085F010008B0
:1000B0005F0100085F0100085F0100085F010008A0
:1000C0005F0100085F0100085F0100085F01000890
:1000D0005F010008A9080008AD08000845090008EC
:1000E0005F0100085F0100085F0100085F01000870
:1000F0005F0100085F0100085F0100085F01000860
:100100005F0100085F0100085F0100085F0100084F
:100110007907000811080008F10600082107000807
:100120005F0100085F0100085F0100085F0100082F
:10013000DFF80CD000F058F80048004751110008D3
:10014000785700200648804706480047FEE7FEE74C
:10015000FEE7FEE7FEE7FEE7FEE7FEE7FEE7FEE777
:100160009106000831010008D2B201E000F8012B2D
:10017000491EFBD270470022F6E710B513460A4627
:1001800004461946FFF7F0FF204610BD421E12F844
:10019000013F002BFBD111F8013B02F8013B002B82
:1001A000F9D1704730B505462A460B4612F8010BC7
:1001B00013F8014B08B1A042F8D01CB1002802D0BE
:1001C0006D1CF1E7284630BD421C10F8011B0029C8
:1001D000FBD1801A7047034611F8012B00F8012B60
:1001E000002AF9D118467047064C074D06E0E06832
:1001F00040F0010394E8070098471034AC42F6D36E
:10020000FFF79AFF941A0008B41A00082DE9F0418C
:10021000024600250026002000230024002791F834
:1002200003C00CF00F0591F803C00CF0100CBCF1EA
:10023000000F03D091F802C04CEA050591F800C008
:10024000BCF1000F31D0146800202BE04FF0010CFE
:100250000CFA00F3B1F800C00CEA03069E4220D16C
:1002600083004FF00F0C0CFA03F7BC4305FA03FCB4
:100270004CEA040491F803C0BCF1280F06D14FF0FA
:10028000010C0CFA00FCC2F814C00AE091F803C09B
:10029000BCF1480F05D14FF0010C0CFA00FCC2F87C
:1002A00010C0401C0828D1D31460B1F800C0BCF1C4
:1002B000FF0F34DD546800202EE000F1080C4FF0F1
:1002C000010808FA0CF3B1F800C00CEA03069E42DC
:1002D00021D183004FF00F0C0CFA03F7BC4305FA51
:1002E00003FC4CEA040491F803C0BCF1280F05D1CB
:1002F00000F1080C08FA0CF8C2F8148091F803C059
:10030000BCF1480F07D100F1080C4FF0010808FAC2
:100310000CF8C2F81080401C0828CED35460BDE809
:10032000F0814161704701617047000070B50021A4
:1003300000230F22C47804B3154C246804F4E0644D
:10034000C4F5E064210AC1F10403CA40447804FA08
:1003500003F184781440214309010E4C0678A1551D
:10036000047804F01F050124AC4005786D11AD0040
:1003700005F1E025C5F8004109E0047804F01F0507
:100380000124AC40044D0678761145F8264070BD36
:100390000CED00E000E400E080E100E029B1064A55
:1003A000D2690243044BDA6104E0034AD269824312
:1003B000014BDA61704700000010024029B1064A83
:1003C00092690243044B9A6104E0034A92698243B2
:1003D000014B9A61704700000010024030B50021C7
:1003E0000022002400232D4D6D6805F00C0121B181
:1003F000042905D0082923D105E0294D056022E014
:10040000274D05601FE0254D6D6805F47012234DE2
:100410006D6805F48034022505EB92421CB9214D2C
:10042000554305600BE01D4D6D6805F400351DB1A9
:100430001C4D5543056002E0194D5543056002E02F
:10044000174D056000BF00BF144D6D6805F0F00149
:100450000909154D6B5C0568DD4045600F4D6D6801
:1004600005F4E061090A104D6B5C4568DD4085606C
:100470000A4D6D6805F46051C90A0B4D6B5C456807
:10048000DD40C560054D6D6805F44041890B074DA1
:100490006B5CC568B5FBF3F5056130BD001002402B
:1004A00000127A0000093D0010000020200000200A
:1004B00010B500F001F810BD0CB5002001900090BF
:1004C0003348006840F480303149086000BF30484C
:1004D000006800F4003000900198401C01900098E2
:1004E00018B90198B0F5A06FF1D12948006800F45F
:1004F000003010B10120009001E000200090009831
:10050000012843D12348006840F0100021490860C9
:100510000846006820F0030008600846006840F0C4
:10052000020008601A484068194948600846406857
:1005300048600846406840F480604860084640686B
:1005400020F47C1048600846406840F4E810486099
:100550000846006840F08070086000BF0C480068E2
:1005600000F000700028F9D00948406820F003002E
:10057000074948600846406840F00200486000BFF4
:100580000348406800F00C000828F9D10CBD0000B9
:10059000001002400020024030B50146B1F1807FDA
:1005A00001D3012030BD21F07F40401E4FF0E022FA
:1005B000506150170F22002807DA13071D0E094B50
:1005C00000F00F04241F1D5503E013071C0E064BFB
:1005D0001C5400BF00204FF0E02290610720106102
:1005E0000020DFE718ED00E000E400E02DE9F04135
:1005F00000210E460F460C460D463EE0234800EB18
:100600004410007870B3214800EB4410D0E9043066
:10061000591E60F100001D4A02EB4412C2E90410A9
:10062000761C47F10007194800EB4410D0E904108C
:10063000002359405840014314D1144800EB4410A2
:10064000D0E90221114800EB4410C0E904210F4811
:1006500000EB4410C2690D4800EB4410836920464A
:10066000294698470949083903C970407940084329
:1006700000D107E0641C45F100056421611A75F1A1
:100680000000BBD300BFBDE8F0810000F0040020F3
:1006900010B51348006840F0010011490860084691
:1006A0004068104908400E494860084600680E49F5
:1006B00008400B4908600846006820F48020086064
:1006C0000846406820F4FE0048604FF41F00886030
:1006D000FFF7EEFE4FF000600449086010BD000017
:1006E000001002400000FFF8FFFFF6FE08ED00E0FA
:1006F00010B50121084800F02EF860B107480268E3
:100700004068521E60F1000004490A6048600121FF
:10071000014800F01DF810BD00100040000000204E
:1007200010B50121084800F016F860B107480268CA
:100730004068521E60F1000004490A6048600121CF
:10074000014800F005F810BD00140040080000202A
:10075000CA430282704730B50246002000230024BD
:10076000158A05EA0103958905EA010413B10CB164
:10077000012000E0002030BD10B540F22551214895
:1007800000F045F900283CD01E4800F0FBF9C4B247
:100790001D480088C0F30E0040F6FF7188420DDA54
:1007A00019490988C1F30E00411C174A128861F3E8
:1007B0000E0215490A80A1F580510C540A2C20D153
:1007C00011480088C0F30E00801E1049085C0D28F7
:1007D00017D10D480088C0F30E00C01E085C4B28DE
:1007E0000FD109480088C0F30E00001F085C4F2895
:1007F00007D10548008820F4004000F50040024978
:10080000088010BD004C004074410020743100206D
:1008100010B540F22551214800F0F9F800283CD0ED
:100820001E4800F0AFF9C4B21D480088C0F30E00A6
:1008300040F6FF7188420DDA19490988C1F30E00AC
:10084000411C174A128861F30E0215490A80A1F56E
:1008500080510C540A2C20D111480088C0F30E009E
:10086000801E1049085C0D2817D10D480088C0F380
:100870000E00C01E085C4B280FD109480088C0F349
:100880000E00001F085C4F2807D10548008820F49F
:10089000004000F500400249088010BD00500040B3
:1008A00076510020764100207047000010B540F2DC
:1008B0002551214800F0ABF800283CD01E4800F03C
:1008C00061F9C4B21D480088C0F30E0040F6FF7104
:1008D00088420DDA19490988C1F30E00411C174AF4
:1008E000128861F30E0215490A80A1F580510C545B
:1008F0000A2C20D111480088C0F30E00801E104938
:10090000085C0D2817D10D480088C0F30E00C01EEA
:10091000085C4B280FD109480088C0F30E00001F67
:10092000085C4F2807D10548008820F4004000F5F6
:1009300000400249088010BD0044004070210020A2
:100940007011002010B540F22551214800F05FF8E9
:1009500000283CD01E4800F015F9C4B21D4800889C
:10096000C0F30E0040F6FF7188420DDA194909887C
:10097000C1F30E00411C174A128861F30E0215499B
:100980000A80A1F580510C540A2C20D1114800880E
:10099000C0F30E00801E1049085C0D2817D10D48C9
:1009A0000088C0F30E00C01E085C4B280FD1094818
:1009B0000088C0F30E00001F085C4F2807D10548CF
:1009C000008820F4004000F500400249088010BD76
:1009D00000480040723100207221002021B182893C
:1009E00042F40052828104E082894DF6FF731A407E
:1009F0008281704702460020B1F5007F00D100BF20
:100A000013880B400BB1012000E00020704770B547
:100A10000246002400230025002040F66A16B14259
:100A200000D100BFC1F3421501F01F03012606FAF1
:100A300003F3012D02D19689334006E0022D02D145
:100A4000168A334001E0968A33400C12012606FADA
:100A500004F41688344013B10CB1012000E00020EA
:100A600070BDF0B50346002400260025002040F6A6
:100A70006A17B94200D100BF1846C1F3421401F011
:100A80001F06012707FA06F5012C01D10C3004E0FE
:100A9000022C01D1103000E014301AB107682F4346
:100AA000076002E00768AF430760F0BD2DE9F0473B
:100AB00086B005460E460024A24600BFA146002788
:100AC000B08900B100BF2F462C8A4CF6FF7004405D
:100AD000F08804432C82AC894EF6F3100440B088B1
:100AE00031890843718908430443AC81AC8A4FF6CD
:100AF000FF400440B0890443AC8201A8FFF76EFCBC
:100B00001F48874202D1DDF810A001E0DDF80CA0FB
:100B1000A88900F4004040B10AEBCA0000EB0A10BB
:100B200031684900B0FBF1F807E00AEBCA0000EBBE
:100B30000A1031688900B0FBF1F86420B8FBF0F0CE
:100B400004012009642101FB1089A88900F40040F8
:100B500040B1322000EBC900B0FBF1F000F007001B
:100B6000044308E0322000EB09106421B0FBF1F0EF
:100B700000F00F0004432C8106B0BDE8F0870000B0
:100B80000038014001468888C0F308007047C1F36F
:100B900008028280704700000FB4054B10B503A90E
:100BA000044A029800F017F810BC5DF814FB00002E
:100BB000A10F00082400002002E008C8121F08C18D
:100BC000002AFAD170477047002001E001C1121FCE
:100BD000002AFBD170472DE9F84F99469246884686
:100BE0000546002706E025280AD051464A46904788
:100BF0006D1C7F1C28780028F5D13846BDE8F88F99
:100C0000002315F8011F18462E2915D115F8011FCC
:100C100004232A290DD06FF02F022978A1F1300486
:100C2000092C09D800EB800002EB400008446D1C41
:100C3000F3E758F8040B6D1C2A78002ADDD0632AEC
:100C400007D0732A0FD0104651464A4690477F1C62
:100C50002AE018F8042B8DF8002000218DF80110EF
:100C60006E46012103E058F8046B4FF0FF315A073C
:100C70004FF0000401D409E0641C84420BDA8C427A
:100C8000FADB325D002AF7D105E0641C8C42FCDB04
:100C9000305D0028F9D1274404E016F8010B5146D5
:100CA0004A469047641EF8D26D1CA3E72DE9F04731
:100CB00006460F4692466421711A77F1000001D36F
:100CC000BDE8F0874FF00008C1460024254640E00B
:100CD00004EB4401224810F83100B0B3012318EBB3
:100CE000030849F1000904EB44011D4800EBC10170
:100CF000D1E902017040794008431CD1012104EB85
:100D00004402174800EBC200017404EB440114488C
:100D100000EBC101D1E90221104600F0B1FB1048FF
:100D20000838D0E900305A1E60F100000C4908393B
:100D3000C1E90020C4E70A49083903C988EA00006C
:100D400089EA0101084301D1BAE7FFE7641C45F1D4
:100D500000053221611A75F10000B9D300BFAFE779
:100D6000380000202DE9F84F044615461E460020A5
:100D700000902046FFF728FA814609F1040000F0B0
:100D80007FFA824621465046FFF725FA4FA150468A
:100D9000FFF7FCF94E480088C10BC9034C4801809D
:100DA0004C480088C10BC9034A4801804A48008862
:100DB000C10BC9034848018048480088C10BC903DA
:100DC000464801804248008820F4004140480180A4
:100DD0004048008820F400413E4801803E48008899
:100DE00020F400413C4801803C48008820F4004148
:100DF0003A4801803AA0FFF7CFFE51463A4800F04A
:100E000024FD5146394800F020FD5146384800F095
:100E10001CFD5146374800F018FD504600F0D2F84E
:100E20006B46354A2846314600F0E0FA07468846C8
:100E300000BF27480088C00B18B99DF800000028A3
:100E4000F7D000BF23480088C00B18B99DF80000F8
:100E50000028F7D000BF20480088C00B18B99DF8C3
:100E600000000028F7D000BF1C480088C00B18B94C
:100E70009DF800000028F7D09DF8000018B11FA0D1
:100E8000FFF78AFE06E03846414600F0F9FA1EA058
:100E9000FFF782FE00210E480088C0F30E001B4AB7
:100EA00011540C480088C0F30E00194A11540A4826
:100EB0000088C0F30E00174A115408480088C0F398
:100EC0000E00154A1154BDE8F88F00000D0A00000D
:100ED00070210020723100207441002076510020E2
:100EE00073656E64210A0000004400400048004021
:100EF000004C004000500040F114000874696D651A
:100F00006F75740A000000006F6B0A0070110020FA
:100F10007221002074310020764100202DE9FC412F
:100F200006460F4614461D4636B1012E0DD0022E40
:100F300013D0032E21D118E03A4611491148CDE9CA
:100F4000004500F0BFFCBDE8FC813A460E490F4861
:100F5000CDE9004500F0B6FCF5E73A460C490D48EE
:100F6000CDE9004500F0AEFCEDE73A460A490B48F2
:100F7000CDE9004500F0A6FCE5E70020E3E700002E
:100F80000044004070110020004800407221002001
:100F9000004C004074310020005000407641002099
:100FA00070B504460D46E1B20548FFF7F0FD00BFFD
:100FB00080210348FFF71EFD0028F9D0204670BDB0
:100FC0000038014010B5002821D0114B0022001F2D
:100FD000196803E0814203D80A4649680029F9D11B
:100FE00052B11368841A9C4204D1006818441060FE
:100FF000104602E0506000E0186039B102680B1A38
:10100000934203D10B681A4402604968416010BDE5
:1010100028000020F8B506460C4615468DF80060FD
:101020008DF801408DF8025001208DF803006846CC
:10103000FFF77CF9F8BD00001FB54FF48060411048
:10104000054A00924023CDE9012103901A46034945
:10105000084600F041F81FBD00180140BD0300081C
:101060001FB54FF480404110054A00924023CDE95E
:10107000012103901A460349084600F02DF81FBDD0
:1010800000180140BD0300081FB502200121064AD7
:1010900000928023CDE9012103901A4603490846B6
:1010A00000F01AF81FBD0000001C0140BD0300083D
:1010B0001FB508200421064A00928023CDE90121B2
:1010C00003901A460349084600F006F81FBD0000C9
:1010D000001C0140BD0300082DE9F84F04460D46F1
:1010E00016461F46DDE90CABDDE90A8901213046D1
:1010F000A047ADF800A010208DF8030003208DF864
:10110000020069464046FFF781F801213846A847AA
:10111000ADF800B069464846FFF778F8BDE8F88FAB
:1011200008B501218020FFF749F91020ADF8000033
:101130008DF8030003208DF8020069460348FFF78D
:1011400065F800F097FC00F09DFC08BD001C014014
:101150001CB500200C2103460246CDE900100146D3
:101160004FF4E13000F0D0F9FFF7DAFF002000F093
:1011700015FC012000F012FC022000F00FFC0320FF
:1011800000F00CFC26A0FFF707FD002000F074FB28
:1011900025A0FFF701FD012000F06EFB24A0FFF762
:1011A000FBFC022000F068FB23A0FFF7F5FC032006
:1011B00000F062FB22A0FFF7EFFC002000F096F8A1
:1011C00021A0FFF7E9FC012000F090F820A0FFF734
:1011D000E3FC022000F08AF81FA0FFF7DDFC0320EB
:1011E00000F084F81AE04FF4FA6200231CA0FFF725
:1011F000B9FD1E491EA0FFF7CFFC1E491CA0FFF73A
:10120000CBFC1D491AA0FFF7C7FC1C4918A0FFF72B
:10121000C3FC4FF47A70002100F082F8E3E700008D
:1012200077616974310A000077616974320A0000DD
:1012300077616974330A000077616974340A0000C9
:10124000736574310A000000736574320A0000008F
:10125000736574330A000000736574340A0000007B
:1012600041542B43574C41500000000070110020A6
:1012700025730A007221002074310020764100207D
:10128000F0B50B30154D20F007010024144A0FE093
:1012900003688B420BD38B4205D95E1A431847680B
:1012A000C3E9006700E04368136002C004E0021D68
:1012B00010680028ECD12046002802D1286808B127
:1012C0000020F0BD064A07481060074A121A22F0B3
:1012D0000702C0E9002401202860D7E72C00002085
:1012E000280000207C5100207853002070B504466F
:1012F0000CE04FF4FA72002305A12046FFF70EFE22
:10130000054606A1FEF74EFF00B170BDF1E70000F3
:1013100041542B43574D4F44453D31004F4B000046
:101320002DE9F0478046894600210C460D4609E02C
:1013300004EB44012B4810F8310000B907E0641CAD
:1013400045F100053221611A75F10000F0D300BFAC
:101350003221611A75F1000003D34FF0FF30BDE870
:10136000F087002104EB44021E4800EBC200017428
:1013700000231D4A4046494600F038F806460F460D
:10138000642386EA0300384301D1401EE7E715488D
:101390000838D0E90030591C40F10000114A083AE1
:1013A000C2E9001004EB44010E4800EBC100C0E9A3
:1013B0000267012104EB44020A4800F8321000BF22
:1013C00004EB4401074800EBC100007C0028F7D083
:1013D00004EB4402034901EBC2001821FEF7CBFEE7
:1013E0000020BCE738000020AD0C00082DE9F047D4
:1013F0000746884691469A4600210C460D4608E06D
:101400001D4800EB4410007800B907E0641C45F16A
:1014100000056421611A75F10000F1D300BF642159
:10142000611A75F1000003D364200021BDE8F08744
:10143000114800EB4416C6E90278C6E90478C6F8FC
:101440001890C6F81CA00838D0E90020521C40F1C2
:10145000000009490839C1E9002001203070084620
:10146000D0E9001001235940014302D10348FFF79E
:1014700093F820462946D9E7F004002040190100DE
:1014800070B504460D466421611A75F1000002D35F
:101490004FF0FF3070BD154800EB4410007808B9DC
:1014A0000020F7E7114901EB44102021FEF763FE0D
:1014B0000E480838D0E90010491E60F100000B4AC0
:1014C000083AC2E900101046D0E90010002251404D
:1014D0005040014307D14FF0E020006920F00100A7
:1014E0004FF0E02108610020D4E70000F004002064
:1014F00070B505460E461446012020702846314638
:10150000FFF7BEFF70BD00002DE9F04385B0044633
:101510000D4616461F46DDE90C8901210420FEF721
:101520004DFF4FF40070ADF8100018208DF8130037
:1015300003208DF8120004A91948FEF767FE4FF446
:101540008060ADF8100004208DF8130004A9144841
:10155000FEF75CFE01218803FEF730FF0094ADF832
:101560000450ADF80660ADF80870ADF80C90ADF819
:101570000A8069460B48FFF799FA01221146252097
:10158000FFF748FD012240F225510648FFF769FAAE
:1015900001210448FFF722FA05B0BDE8F0830000FE
:1015A00000080140003801402DE9F04385B00446B1
:1015B0000D4616461F46DDE90C8901210420FEF781
:1015C000FDFE0420ADF8100018208DF81300032054
:1015D0008DF8120004A91948FEF718FE0820ADF88E
:1015E000100004208DF8130004A91448FEF70EFE25
:1015F00001214804FEF7D2FE0094ADF80450ADF886
:101600000660ADF80870ADF80C90ADF80A80694638
:101610000B48FFF74BFA022201212620FFF7FAFCC4
:10162000012240F225510648FFF71BFA0121044828
:10163000FFF7D4F905B0BDE8F083000000080140D1
:10164000004400402DE9F04385B004460D4616469F
:101650001F46DDE90C8901210820FEF7AFFE4FF49B
:101660008060ADF8100018208DF8130003208DF86D
:10167000120004A91948FEF7C9FD4FF40060ADF847
:10168000100004208DF8130004A91448FEF7BEFDD5
:1016900001218804FEF782FE0094ADF80450ADF8F5
:1016A0000660ADF80870ADF80C90ADF80A80694698
:1016B0000B48FFF7FBF9032201212720FFF7AAFCC3
:1016C000012240F225510648FFF7CBF901210448D9
:1016D000FFF784F905B0BDE8F0830000000C01407D
:1016E000004800402DE9F04385B004460D461646FB
:1016F0001F46DDE90C8901211020FEF75FFE4FF443
:101700008060ADF8100018208DF8130003208DF8CC
:10171000120004A91948FEF779FD4FF40060ADF8F6
:10172000100004208DF8130004A91448FEF76EFD84
:101730000121C804FEF732FE0094ADF80450ADF864
:101740000660ADF80870ADF80C90ADF80A806946F7
:101750000B48FFF7ABF9042201213420FFF75AFCB4
:10176000012240F225510648FFF77BF90121044888
:10177000FFF734F905B0BDE8F08300000010014028
:10178000004C00402DE9F04385B004460D46164656
:101790001F46DDE90C8901211020FEF70FFE012113
:1017A0002020FEF70BFE4FF48050ADF810001820FB
:1017B0008DF8130003208DF8120004A91848FEF7D5
:1017C00025FD0420ADF810008DF8130004A915487C
:1017D000FEF71CFD01210805FEF7E0FD0094ADF8C1
:1017E0000450ADF80660ADF80870ADF80C90ADF897
:1017F0000A8069460C48FFF759F905220121352076
:10180000FFF708FC012240F225510748FFF729F9AC
:1018100001210548FFF7E2F805B0BDE8F0830000BC
:1018200000100140001401400050004070B5044613
:101830000D4629462046FFF7AAF900BF8021204621
:10184000FFF7D8F80028F9D070BDD0B507460E468E
:10185000002400BF315D3846FFF7E8FF641C601EBE
:10186000305C0028F6D100BF4FF040013846FFF74A
:10187000C1F80028F8D0D0BD70B5044612E04FF48E
:10188000FA72002308A12046FFF748FB05462946C7
:1018900006A0FFF781F90AA12846FEF783FC00B1F4
:1018A00070BD00BFEBE70000415400000A0A257339
:1018B0000A0A3D3D3D3D3D3D3D3D3D3D3D3D0A002E
:1018C0004F4B00002DE9FC5F04468A469146DDE956
:1018D0000C56002001904846FEF776FC83460BF13B
:1018E0000400FFF7CDFC009049460098FEF773FC1A
:1018F00022A10098FEF74AFC4FF48050005B20F4D0
:1019000000414FF480500153005BC10BC9034FF4F9
:10191000805001531AA0FFF73FF950460099FFF796
:1019200094FF0098FFF74EFB01AB174A284631465B
:10193000FFF75CFD0746884600BF4FF48050005B10
:10194000C00B18B99DF804000028F6D09DF80400DB
:1019500018B10EA0FFF720F906E038464146FFF720
:101960008FFD0DA0FFF718F900214FF48050005BA8
:10197000C0F30E0021542046BDE8FC9F0D0A000074
:1019800073656E64210A0000F114000874696D65C6
:101990006F75740A000000006F6B0A001CB50446E6
:1019A00034B1012C1CD0022C32D0032C5CD145E088
:1019B000FFF742FB00200C2103460246CDE9001050
:1019C00001464FF4E130FFF7EFFD4FF48061274807
:1019D000FEF7A9FC4FF400712448FEF7A4FC43E095
:1019E000FFF73EFB00200C2103460246CDE9001024
:1019F00001464FF4E130FFF725FE4FF480411B48CC
:101A0000FEF791FC4FF400511848FEF78CFC2BE0D8
:101A1000FFF73AFB00200C2103460246CDE90010F7
:101A200001464FF4E130FFF75DFE02211048FEF75A
:101A30007AFC01210E48FEF776FC15E0FFF738FB33
:101A400000200C2103460246CDE9001001464FF468
:101A5000E130FFF797FE08210548FEF764FC0421FA
:101A60000348FEF760FC00BF00BF1CBD001801402A
:101A7000001C014010B510210148FEF752FC10BDBA
:101A8000001C014010B510210148FEF74CFC10BDB0
:101A9000001C0140B41A00080000002030000000C3
:101AA000B80B0008E41A0008300000204857000076
:101AB000C80B00080000000000000000000000004B
:101AC0000000000000000000010203040102030402
:101AD00006070809020406080000000000000000D4
:041AE0000000000002
:0400000508000131BD
:00000001FF
