:020000040800F2
:10000000605C0020450100084D0100084F01000818
:1000100051010008530100085501000800000000CC
:100020000000000000000000000000005701000870
:1000300059010008000000005B0100087D0600086F
:100040005F0100085F0100085F0100085F01000810
:100050005F0100085F010008D90100085F01000886
:100060000102000829020008510200085F0100088F
:100070005F0100085F0100085F0100085F010008E0
:100080005F0100085F0100085F0100085F010008D0
:100090005F0100085F0100085F0100085F010008C0
:1000A0005F0100085F0100085F0100085F010008B0
:1000B0005F0100085F0100085F0100085F010008A0
:1000C0005F0100085F0100085F0100085F01000890
:1000D0005F010008490800084D0800086D08000885
:1000E0005F0100085F0100085F0100085F01000870
:1000F0005F0100085F0100085F0100085F01000860
:100100005F0100085F0100085F0100085F0100084F
:10011000090800082908000881070008B10700083D
:100120005F0100085F0100085F0100085F0100082F
:10013000DFF80CD000F03EF8004800473511000809
:10014000605C00200648804706480047FEE7FEE75F
:10015000FEE7FEE7FEE7FEE7FEE7FEE7FEE7FEE777
:100160002107000831010008D2B201E000F8012B9C
:10017000491EFBD270470022F6E710B513460A4627
:1001800004461946FFF7F0FF204610BD421C10F848
:10019000011B0029FBD1801A704730B504460020AE
:1001A000034600E05B1C934203D2E05CCD5C401B45
:1001B000F8D030BD064C074D06E0E06840F0010382
:1001C00094E8070098471034AC42F6D3FFF7B4FF29
:1001D0001C1A00083C1A000810B54FF40810002142
:1001E00000F02AFC012000F04DF810B10120034975
:1001F0000870012000F040F810BD0000370000201A
:1002000010B54FF40810002100F016FC042000F097
:1002100039F810B1012003490870042000F02CF8CF
:1002200010BD00003600002010B54FF4081000216A
:1002300000F002FC082000F025F810B1012003496D
:100240000870082000F018F810BD000035000020EC
:1002500010B54FF40810002100F0EEFB102000F064
:1002600011F810B1012003490870102000F004F8C3
:1002700010BD0000340000200149086070470000F4
:1002800014040140014600200022074B1B6803EACA
:100290000102054B14331B680B4013B10AB1012056
:1002A00000E00020704700000004014000212349C5
:1002B0008279002A3AD00A46126803689A430B46AC
:1002C0001A600A1D126803689A430B1D1A600279AE
:1002D00011440A6803681A430A60184A083212680F
:1002E00003689A43154B08331A601A1D1268036895
:1002F0009A43124B0C331A604279102A0ED11A1FFE
:10030000126803681A430D4B08331A601A1D1268ED
:1003100003681A43094B0C331A600DE00749427910
:1003200011440A6803681A430A6005E0027911441F
:100330000A6803689A430A6070470000000401409D
:1003400030B500228B071C0F0F2303FA04F20B4B6E
:100350008C1053F824309343084C8D1044F825300A
:1003600023468C1053F824308C07240F00FA04F431
:100370002343024C8D1044F8253030BD0800014065
:100380002DE9F0410246002500260020002300242C
:10039000002791F803C00CF00F0591F803C00CF092
:1003A000100CBCF1000F03D091F802C04CEA050517
:1003B00091F800C0BCF1000F31D0146800202BE090
:1003C0004FF0010C0CFA00F3B1F800C00CEA030680
:1003D0009E4220D183004FF00F0C0CFA03F7BC4370
:1003E00005FA03FC4CEA040491F803C0BCF1280FA1
:1003F00006D14FF0010C0CFA00FCC2F814C00AE060
:1004000091F803C0BCF1480F05D14FF0010C0CFA74
:1004100000FCC2F810C0401C0828D1D31460B1F809
:1004200000C0BCF1FF0F34DD546800202EE000F165
:10043000080C4FF0010808FA0CF3B1F800C00CEA00
:1004400003069E4221D183004FF00F0C0CFA03F7F4
:10045000BC4305FA03FC4CEA040491F803C0BCF168
:10046000280F05D100F1080C08FA0CF8C2F8148026
:1004700091F803C0BCF1480F07D100F1080C4FF010
:10048000010808FA0CF8C2F81080401C0828CED3E6
:100490005460BDE8F0810146886880B270474161D0
:1004A0007047016170470AB1016100E04161704726
:1004B00070B5002100230F22C47804B3154C2468C2
:1004C00004F4E064C4F5E064210AC1F10403CA4005
:1004D000447804FA03F184781440214309010E4C56
:1004E0000678A155047804F01F050124AC40057876
:1004F0006D11AD0005F1E025C5F8004109E0047873
:1005000004F01F050124AC40044D0678761145F82F
:10051000264070BD0CED00E000E400E080E100E06A
:1005200029B1064A92690243044B9A6104E0034AE6
:1005300092698243014B9A617047000000100240AB
:1005400010B500F001F810BD0CB50020019000902E
:100550003348006840F480303149086000BF3048BB
:10056000006800F4003000900198401C0190009851
:1005700018B90198B0F5A06FF1D12948006800F4CE
:10058000003010B10120009001E0002000900098A0
:10059000012843D12348006840F010002149086039
:1005A0000846006820F0030008600846006840F034
:1005B000020008601A4840681949486008464068C7
:1005C00048600846406840F48060486008464068DB
:1005D00020F47C1048600846406840F4E810486009
:1005E0000846006840F08070086000BF0C48006852
:1005F00000F000700028F9D00948406820F003009E
:10060000074948600846406840F00200486000BF63
:100610000348406800F00C000828F9D10CBD000028
:10062000001002400020024030B50146B1F1807F49
:1006300001D3012030BD21F07F40401E4FF0E02269
:10064000506150170F22002807DA13071D0E094BBF
:1006500000F00F04241F1D5503E013071C0E064B6A
:100660001C5400BF00204FF0E02290610720106171
:100670000020DFE718ED00E000E400E02DE9F041A4
:1006800000210E460F460C460D463EE0234800EB87
:100690004410007870B3214800EB4410D0E90430D6
:1006A000591E60F100001D4A02EB4412C2E9041019
:1006B000761C47F10007194800EB4410D0E90410FC
:1006C000002359405840014314D1144800EB441012
:1006D000D0E90221114800EB4410C0E904210F4881
:1006E00000EB4410C2690D4800EB441083692046BA
:1006F000294698470949083903C970407940084399
:1007000000D107E0641C45F100056421611A75F110
:100710000000BBD300BFBDE8F0810000D809002075
:1007200010B51348006840F0010011490860084600
:100730004068104908400E494860084600680E4964
:1007400008400B4908600846006820F480200860D3
:100750000846406820F4FE0048604FF41F0088609F
:10076000FFF7EEFE4FF000600449086010BD000086
:10077000001002400000FFF8FFFFF6FE08ED00E069
:1007800010B50121084800F02EF860B10748026852
:100790004068521E60F1000004490A60486001216F
:1007A000014800F01DF810BD0010004000000020BE
:1007B00010B50121084800F016F860B1074802683A
:1007C0004068521E60F1000004490A60486001213F
:1007D000014800F005F810BD00140040080000209A
:1007E000CA430282704730B502460020002300242D
:1007F000158A05EA0103958905EA010413B10CB1D4
:10080000012000E0002030BD10B540F22551044821
:1008100000F03CF818B10349014801F029F810BD77
:10082000004C00405C36002010B540F225510448D1
:1008300000F02CF818B10349014801F019F810BD77
:10084000005000405E4600207047000010B540F2A6
:100850002551044800F01AF818B10349014801F085
:1008600007F810BD004400405816002010B540F2B3
:100870002551044800F00AF818B10349014800F076
:10088000F7FF10BD004800405A26002070B5024610
:10089000002400230025002040F66A16B14200D152
:1008A00000BFC1F3421501F01F03012606FA03F34E
:1008B000012D02D19689334006E0022D02D1168A1D
:1008C000334001E0968A33400C12012606FA04F404
:1008D0001688344013B10CB1012000E0002070BD37
:1008E00001468888C0F30800704700000FB4084B29
:1008F00010B504A902AA039800F01BF8044602A947
:10090000002000F081F8204610BC5DF814FB0000C8
:10091000090A000802E008C8121F08C1002AFAD11B
:1009200070477047002001E001C1121F002AFBD16F
:1009300070472DE9F84F99469246884605460027AC
:1009400006E025280AD051464A4690476D1C7F1C78
:1009500028780028F5D13846BDE8F88F002315F82F
:10096000011F18462E2915D115F8011F04232A2925
:100970000DD06FF02F022978A1F13004092C09D88D
:1009800000EB800002EB400008446D1CF3E758F8D0
:10099000040B6D1C2A78002ADDD0632A07D0732A45
:1009A0000FD0104651464A4690477F1C2AE018F85F
:1009B000042B8DF8002000218DF801106E460121D6
:1009C00003E058F8046B4FF0FF315A074FF0000472
:1009D00001D409E0641C84420BDA8C42FADB325DFC
:1009E000002AF7D105E0641C8C42FCDB305D002856
:1009F000F9D1274404E016F8010B51464A469047C6
:100A0000641EF8D26D1CA3E70A68531C0B601070BB
:100A1000704710B5044614B900F086FB0BE000F0F7
:100A2000BBFA00221146204600F0BBFA00BF00F0DE
:100A3000C1FD0028FBD010BD30B502E0401E61F1C1
:100A40000001002380EA03024B401A43F6D130BD77
:100A500030B502E0401E61F10001002380EA03028C
:100A60004B401A43F6D130BD2DE9F04706460F46FC
:100A700092466421711A77F1000001D3BDE8F08736
:100A80004FF00008C1460024254640E004EB440135
:100A9000224810F83100B0B3012318EB030849F1E4
:100AA000000904EB44011D4800EBC101D1E902013A
:100AB0007040794008431CD1012104EB44021748DF
:100AC00000EBC200017404EB4401144800EBC101C7
:100AD000D1E90221104600F0BDFD10480838D0E9E8
:100AE00000305A1E60F100000C490839C1E90020AD
:100AF000C4E70A49083903C988EA000089EA010104
:100B0000084301D1BAE7FFE7641C45F10005322133
:100B1000611A75F10000B9D300BFAFE720050020CE
:100B200010B54FF480510248FFF7B9FC10BD00002A
:100B3000001C014010B54FF480510248FFF7B1FC92
:100B400010BD0000001C01402DE9FC4104460D468B
:100B500016461F4600948DF804508DF805608DF8F8
:100B600006706846FFF7A2FBBDE8FC8110B50028BF
:100B700021D0114B0022001F196803E0814203D8E5
:100B80000A4649680029F9D152B11368841A9C4277
:100B900004D1006818441060104602E0506000E084
:100BA000186039B102680B1A934203D10B681A44DA
:100BB00002604968416010BD48000020F8B500207F
:100BC00000908A4800688A4909688847012000F037
:100BD00091FB6B46874A884903C900F0F1FC012369
:100BE000082200211020FFF7AFFF01230822002177
:100BF0000420FFF7A9FF01230C2200211846FFF76C
:100C0000A3FFF2E07D48007800B1F8BD9DF8000038
:100C100078B176480068764909688847012000F075
:100C200069FB002000906B46724A734903C900F0CB
:100C3000C7FC7248007800B1E7E7714800780028E7
:100C40004AD00023082219461020FFF77DFF002319
:100C5000082219460420FFF777FF00230C221946CB
:100C60000120FFF771FF0123082200211046FFF742
:100C70006BFF6449096801EB41025C490968143162
:100C800001EB8201886860490968884700205C4957
:100C900008700123082200211020FFF755FF0123CF
:100CA000082200210420FFF74FFF01230C2200211E
:100CB0001846FFF749FF0023082219461046FFF7A0
:100CC00043FF0020514908704848006848490968B6
:100CD0008847012000F00EFB4848007800B194E7F7
:100CE0004B480078C0B347480068002823DD4548DA
:100CF0000068C1173D4A1268D2E90232C01A914118
:100D000019D240484068012808DA3E480068401E71
:100D10003C490860012000F0EDFA1AE039484068CB
:100D2000401E3849486008460068401E08600020A0
:100D300000F0E0FA0DE010230022114635A000F08B
:100D40008BF94FF47A70002100F0CEFB012000F007
:100D5000D1FA00202E4908702848007800B154E7E5
:100D60002E480078E8B327480068002828DB25488B
:100D70000168CA171D480068D0E90240631E60F18F
:100D80000000C91A82411BD21E484068C0F102000F
:100D9000022808DA1B480068401C1A490860012034
:100DA00000F0A8FA1AE017484068401C154948604E
:100DB00008460068401C0860002000F09BFA0DE027
:100DC00010230022012116A000F046F94FF47A709A
:100DD000002100F089FB012000F08CFA00200F496F
:100DE00008700648007800B10FE70BE710000020FC
:100DF00020000020C5160008180000202800002050
:100E0000340000202C0000202400002035000020A9
:100E100036000020415420544F502100370000205C
:100E2000415420424F54544F4D2100002DE9F843C6
:100E300007460C4615461E46DDF82080ADF80040FA
:100E40008DF8035069463846FFF79AFA4146304616
:100E5000FFF776FABDE8F88308B501218020FFF797
:100E60005FFB10208DF8030001208DF802000002C6
:100E7000ADF8000069461D48FFF782FA4FF40060A4
:100E8000ADF8000069461948FFF77AFA4FF4805030
:100E9000ADF8000069461548FFF772FA382000F0F7
:100EA0005BFD40F2FF200021FFF7D2FD382000F06B
:100EB00053FD40F2FF200021FFF7CAFD382000F06B
:100EC0004BFD40F2FF200021FFF7C2FD382000F06B
:100ED00027FD082000F024FD012000F021FD062060
:100EE00000F01EFD0C2000F01BFD08BD001C0140A1
:100EF000F8B506460C4615468DF800608DF80140A1
:100F00008DF8025001208DF803006846FFF7D0FAF3
:100F1000F8BD000008B5002211460A20FFF7E8FFDF
:100F2000002211460920FFF7E3FF002211460820A6
:100F3000FFF7DEFF002211460620FFF7D9FF01214F
:100F40004420FFF7EDFA01210846FFF7E9FA0420F3
:100F500003464822102100900D48FFF767FF032049
:100F600004234822082100900948FFF75FFF022070
:100F700004234822194600900548FFF757FF002038
:100F800003462822012100900248FFF74FFF08BDC9
:100F9000001801400008014010B5012000F0C0FC1D
:100FA00010BD2DE9F04707460C4615464FF00008E6
:100FB000002C05DB022C03DA002D01DB102D01DBF8
:100FC000BDE8F0873846FFF7E1F88146264619E08C
:100FD000A6420BD12A462146384600F018F8C5F142
:100FE00010008044C5F11000074407E0002231469C
:100FF000384600F00CF808F110081037C84500D347
:1010000002E0761C022EE3DB00BF00BFD8E72DE92B
:10101000F04707460C461546002C05DB022C03DA88
:10102000002D01DB102D01DBBDE8F08705EB8418F6
:10103000C5F1100908F0FF0000F03BF8002606E0BB
:10104000B85D00B905E0B85D00F0C4FC761C4E4503
:10105000F6DB00BF00BFE7E72DE9F04780460D460D
:1010600016461C464FF0000A4046FFF78FF88146AF
:10107000002D05DB022D03DA002E01DB102E01DB33
:10108000BDE8F087A14503D9002008F8040001E07D
:10109000A4EB090A324629464046FFF7B8FF00276D
:1010A00003E0202000F096FC7F1C5745F9DB00BFD1
:1010B000E6E710B50446672C00DD10BD44F080045F
:1010C000204600F02DFC00BFF7E700000149086052
:1010D00070470000240000200149086070470000AC
:1010E0001000002001490860704700002000002027
:1010F00010B50A48006828B10948006810B10948CD
:10110000006810B94FF0FF3010BDFFF7A5FEFFF7E4
:1011100001FFFFF753FD0020F6E70000100000205C
:1011200020000020240000200120014908707047A1
:101130002800002010B50A48FFF7CEFF0948FFF746
:10114000D1FF0948FFF7C2FFFFF7D2FFFFF724FFE7
:101150000022114605A0FFF724FF002010BD00006B
:1011600050000020DD160008130A0008594F5520D2
:1011700048415645204C4F53542121212100000065
:10118000F0B50B30154D20F007010024144A0FE094
:1011900003688B420BD38B4205D95E1A431847680C
:1011A000C3E9006700E04368136002C004E0021D69
:1011B00010680028ECD12046002802D1286808B128
:1011C0000020F0BD064A07481060074A121A22F0B4
:1011D0000702C0E9002401202860D7E74C00002066
:1011E00048000020645600206058002010B500F030
:1011F00067F90348FFF74FF9C4B2204610BD00005D
:10120000001C014010B500F017F800F033F8102072
:101210000021FFF71DFCFFF78DFC40200021FFF7A8
:1012200017FCFFF7E3FF044610200021FFF710FC36
:10123000FFF776FC204610BD10B54FF480710248D0
:10124000FFF72DF910BD0000001C014010B54FF450
:1012500080710248FFF725F910BD0000001C014015
:1012600010B54FF400610248FFF719F910BD0000F6
:10127000001C014010B54FF400610248FFF711F95E
:1012800010BD0000001C014010B504460120208064
:1012900021461748FFF774F80220208021461448A1
:1012A000FFF76EF80420208021461148FFF768F808
:1012B0000820208021460E48FFF762F81020208089
:1012C00021460B48FFF75CF8202020802146084883
:1012D000FFF756F84020208021460548FFF750F8D8
:1012E0008020208021460248FFF74AF810BD000008
:1012F000001C01402DE9F041804667480068D0E9B4
:101300000210491E70F1000003D2FFF745FEBDE850
:10131000F0816248006861494968451A5E48006882
:101320000078C0F10F060320FFF72AFF07463FB9F8
:10133000FFF732FE0022114659A0FFF732FEE6E722
:1013400055480068027C59A13846FFF7CFFA002DB6
:1013500004DA002051490860486000254E480068C2
:10136000D0E902C0691CCA17BCEB010190410DD243
:10137000494800688168481E484908604FF00000ED
:1013800048604548006881684D1E1EE0424800687C
:10139000D0E90220531E60F1000040490968CA17D5
:1013A000591A904111D23D4800683B490968896843
:1013B000401A411C39484068401A3849486036484C
:1013C00000688168481E35490860002E00DA002652
:1013D0003248006831494968401A35490968354A38
:1013E0001268891A884202D1B8F1000F31D0002466
:1013F0002DE02919C817284A1368D3E90223891A4E
:10140000984106D30F23012221462BA0FFF724FE8B
:101410001CE0291901EB41021F490968143151F8F8
:101420002200334601222146FFF716FE1A490968B9
:101430000B78291901EB410217490968143101EBB6
:101440008201721C48682146FFF706FE641C022CCC
:10145000CFDB002411E011484068A04206D10123EF
:10146000002221463846FFF7F7FD05E00123002260
:10147000214612A0FFF7F0FD641C022CEBDB0748AD
:1014800000680B490860054840680A49086038460A
:10149000FFF76CFB00BF3AE7100000202C00002093
:1014A0004E4F204D454D4F525921000025630000FD
:1014B000380000203C000020000000002000000058
:1014C00008B504208DF803006846FFF7DDFE08BD6F
:1014D00008B510208DF8030001208DF80200684641
:1014E000FFF7D2FE08BD00002DE9F047804689468F
:1014F00000210C460D4609E004EB44012B4810F88E
:10150000310000B907E0641C45F100053221611A81
:1015100075F10000F0D300BF3221611A75F10000AF
:1015200003D34FF0FF30BDE8F087002104EB440205
:101530001E4800EBC200017400231D4A4046494684
:1015400000F03EF806460F46642386EA030038435F
:1015500001D1401EE7E715480838D0E90030591C92
:1015600040F10000114A083AC2E9001004EB4401BE
:101570000E4800EBC100C0E90267012104EB440200
:101580000A4800F8321000BF04EB4401074800EBA2
:10159000C100007C0028F7D004EB4402034901EBB2
:1015A000C2001821FEF7E7FD0020BCE7200500205F
:1015B000690A0008014800787047000035000020E3
:1015C0002DE9F0470746884691469A4600210C4689
:1015D0000D4608E01D4800EB4410007800B907E014
:1015E000641C45F100056421611A75F10000F1D316
:1015F00000BF6421611A75F1000003D3642000214B
:10160000BDE8F087114800EB4416C6E90278C6E948
:101610000478C6F81890C6F81CA00838D0E9002055
:10162000521C40F1000009490839C1E9002001209D
:1016300030700846D0E9001001235940014302D11F
:101640000348FEF7F1FF20462946D9E7D8090020D4
:101650004019010070B504460D466421611A75F108
:10166000000002D34FF0FF3070BD154800EB44106E
:10167000007808B90020F7E7114901EB4410202158
:10168000FEF779FD0E480838D0E90010491E60F1D8
:1016900000000B4A083AC2E900101046D0E90010D9
:1016A000002251405040014307D14FF0E020006933
:1016B00020F001004FF0E02108610020D4E7000095
:1016C000D809002070B505460E461446012020704A
:1016D00028463146FFF7BEFF70BD000001210170B2
:1016E0002A21017408220021C0E9022117A2826187
:1016F00017A1416119A2C2611CA242621CA202622E
:101700001DA2826223A2026323A2C26224A24263B8
:1017100028A2C26328A282632AA2026430A2826441
:1017200030A2426431A2C26435A2426535A202658C
:1017300036A282651FA202663BA2C2653DA2426636
:1017400043A2C26643A28266704700003C000000CC
:1017500043616C656E6461720000000032303139A3
:101760002E2E2E4D61796265000000003E000000C3
:10177000436C6F636B00000030303A30302C2065D2
:1017800072726F72206C657373207468616E2032A0
:1017900034680000240000004E6F74657300000080
:1017A0005772697465206F6E2070617065722C20AD
:1017B0006D616E002000000052656D696E64657297
:1017C0007300000049276C6C2072656D696E64209F
:1017D000796F752C20696620492063616E000000D6
:1017E0007B00000053746F636B73000049662079BF
:1017F0006F752068617665206D6F6E65792E0000CB
:101800007C000000536166617269000057656C637B
:101810006F6D65212042757420776861742773208D
:10182000746861740000000053657474696E6773B6
:1018300000000000596F75207468696E6720796F29
:1018400075206E65656420746861743F0000000057
:1018500023000000455849542121210010B500BF44
:10186000FFF7D0FC00F080000028F9D110BD000087
:101870002DE9F04780460C464FF48050005BC0F3E2
:101880000E0000F1010A26464046FFF729F800F055
:10189000FF094FF48050005BC0F30E0040F6FF716B
:1018A00088420FDA491C095BC1F30E00411C4FF45A
:1018B0008052125B61F30E024FF480510A5306F816
:1018C000009009E04FF48050005B20F4004000F5E8
:1018D00000404FF48051085300251AE00F4951F899
:1018E0002500FEF753FC07460C4A52F82510AAEBD8
:1018F000070290193A46FEF750FC48B94FF4805061
:10190000005B20F4004000F500404FF48051085384
:101910006D1C022DE2DBBDE8F087000040000020D6
:1019200010B50446FFF79AFFFFF786FCFFF798FC17
:10193000204600F02BF830200021FFF789F8FFF750
:10194000F9F840200021FFF783F8FFF7E9F81020AD
:101950000021FFF77DF810BD10B50446FFF76CFCC1
:10196000FFF77EFC204600F011F830200021FFF741
:101970006FF8FFF7DFF840200021FFF769F8FFF765
:10198000CFF810200021FFF763F810BD70B50546B1
:10199000FFF79EFD002418E005F0010010B10128BA
:1019A00010D107E00120A04081B200220848FEF7D4
:1019B0007AFD07E00120A04081B201220448FEF731
:1019C00072FD00BF00BF6D10641C082CE4DB70BD0D
:1019D000001C014010B50446FFF740FFFFF736FC3E
:1019E000FFF73EFC2046FFF7D1FF30200021FFF734
:1019F0002FF8FFF79FF840200021FFF729F8FFF7A5
:101A00008FF810200021FFF723F810BD4F4B0D0A6F
:101A1000000000004552524F520D0A003C1A0008C7
:101A20000000002050000000140900088C1A000873
:101A300050000020105C0000240900080000000095
:101A40000000000000000000000000000000000096
:101A500000000000B80B00000000000000000000C3
:101A60000000000000000000000000000000000076
:101A700000000000FFFFFFFFFFFFFFFF0C1A000840
:0C1A8000141A0008000000000000000024
:0400000508000131BD
:00000001FF
